{
  "contractName": "NtuDNR",
  "abi": [
    {
      "inputs": [],
      "payable": false,
      "stateMutability": "nonpayable",
      "type": "constructor"
    },
    {
      "anonymous": false,
      "inputs": [
        {
          "indexed": false,
          "internalType": "address",
          "name": "winner",
          "type": "address"
        },
        {
          "indexed": false,
          "internalType": "uint256",
          "name": "topBid",
          "type": "uint256"
        }
      ],
      "name": "AuctionComplete",
      "type": "event"
    },
    {
      "payable": true,
      "stateMutability": "payable",
      "type": "fallback"
    },
    {
      "constant": true,
      "inputs": [
        {
          "internalType": "string",
          "name": "",
          "type": "string"
        }
      ],
      "name": "addresses",
      "outputs": [
        {
          "internalType": "address",
          "name": "",
          "type": "address"
        }
      ],
      "payable": false,
      "stateMutability": "view",
      "type": "function"
    },
    {
      "constant": true,
      "inputs": [],
      "name": "beneficiaryAddress",
      "outputs": [
        {
          "internalType": "address payable",
          "name": "",
          "type": "address"
        }
      ],
      "payable": false,
      "stateMutability": "view",
      "type": "function"
    },
    {
      "constant": true,
      "inputs": [
        {
          "internalType": "address",
          "name": "",
          "type": "address"
        },
        {
          "internalType": "string",
          "name": "",
          "type": "string"
        }
      ],
      "name": "bid",
      "outputs": [
        {
          "internalType": "bytes32",
          "name": "blindBid",
          "type": "bytes32"
        },
        {
          "internalType": "uint256",
          "name": "deposit",
          "type": "uint256"
        }
      ],
      "payable": false,
      "stateMutability": "view",
      "type": "function"
    },
    {
      "constant": true,
      "inputs": [
        {
          "internalType": "address",
          "name": "",
          "type": "address"
        }
      ],
      "name": "domainNames",
      "outputs": [
        {
          "internalType": "string",
          "name": "",
          "type": "string"
        }
      ],
      "payable": false,
      "stateMutability": "view",
      "type": "function"
    },
    {
      "constant": true,
      "inputs": [],
      "name": "endBidding",
      "outputs": [
        {
          "internalType": "uint256",
          "name": "",
          "type": "uint256"
        }
      ],
      "payable": false,
      "stateMutability": "view",
      "type": "function"
    },
    {
      "constant": true,
      "inputs": [],
      "name": "endReveal",
      "outputs": [
        {
          "internalType": "uint256",
          "name": "",
          "type": "uint256"
        }
      ],
      "payable": false,
      "stateMutability": "view",
      "type": "function"
    },
    {
      "constant": true,
      "inputs": [],
      "name": "hasEnded",
      "outputs": [
        {
          "internalType": "bool",
          "name": "",
          "type": "bool"
        }
      ],
      "payable": false,
      "stateMutability": "view",
      "type": "function"
    },
    {
      "constant": true,
      "inputs": [],
      "name": "owner",
      "outputs": [
        {
          "internalType": "address payable",
          "name": "",
          "type": "address"
        }
      ],
      "payable": false,
      "stateMutability": "view",
      "type": "function"
    },
    {
      "constant": true,
      "inputs": [],
      "name": "topBid",
      "outputs": [
        {
          "internalType": "uint256",
          "name": "",
          "type": "uint256"
        }
      ],
      "payable": false,
      "stateMutability": "view",
      "type": "function"
    },
    {
      "constant": true,
      "inputs": [],
      "name": "topBidder",
      "outputs": [
        {
          "internalType": "address payable",
          "name": "",
          "type": "address"
        }
      ],
      "payable": false,
      "stateMutability": "view",
      "type": "function"
    },
    {
      "constant": true,
      "inputs": [
        {
          "internalType": "string",
          "name": "targetDomain",
          "type": "string"
        }
      ],
      "name": "searchDomain",
      "outputs": [
        {
          "internalType": "bool",
          "name": "success",
          "type": "bool"
        }
      ],
      "payable": false,
      "stateMutability": "view",
      "type": "function"
    },
    {
      "constant": true,
      "inputs": [
        {
          "internalType": "string",
          "name": "targetDomain",
          "type": "string"
        }
      ],
      "name": "queryAddress",
      "outputs": [
        {
          "internalType": "address",
          "name": "",
          "type": "address"
        }
      ],
      "payable": false,
      "stateMutability": "view",
      "type": "function"
    },
    {
      "constant": true,
      "inputs": [
        {
          "internalType": "address",
          "name": "targetAddress",
          "type": "address"
        }
      ],
      "name": "queryDomain",
      "outputs": [
        {
          "internalType": "string",
          "name": "",
          "type": "string"
        }
      ],
      "payable": false,
      "stateMutability": "view",
      "type": "function"
    },
    {
      "constant": false,
      "inputs": [
        {
          "internalType": "string",
          "name": "targetDomain",
          "type": "string"
        },
        {
          "internalType": "bytes32",
          "name": "_blindBid",
          "type": "bytes32"
        }
      ],
      "name": "makeBid",
      "outputs": [],
      "payable": true,
      "stateMutability": "payable",
      "type": "function"
    },
    {
      "constant": false,
      "inputs": [
        {
          "internalType": "string",
          "name": "targetDomain",
          "type": "string"
        },
        {
          "internalType": "uint256",
          "name": "_values",
          "type": "uint256"
        },
        {
          "internalType": "bool",
          "name": "_fake",
          "type": "bool"
        },
        {
          "internalType": "bytes32",
          "name": "_secret",
          "type": "bytes32"
        }
      ],
      "name": "reveal",
      "outputs": [],
      "payable": false,
      "stateMutability": "nonpayable",
      "type": "function"
    },
    {
      "constant": false,
      "inputs": [],
      "name": "withdrawBid",
      "outputs": [],
      "payable": false,
      "stateMutability": "nonpayable",
      "type": "function"
    },
    {
      "constant": false,
      "inputs": [],
      "name": "auctionEnd",
      "outputs": [],
      "payable": false,
      "stateMutability": "nonpayable",
      "type": "function"
    },
    {
      "constant": true,
      "inputs": [
        {
          "internalType": "string",
          "name": "targetDomain",
          "type": "string"
        },
        {
          "internalType": "address",
          "name": "targetAddress",
          "type": "address"
        }
      ],
      "name": "viewBidDeposit",
      "outputs": [
        {
          "internalType": "uint256",
          "name": "deposit",
          "type": "uint256"
        }
      ],
      "payable": false,
      "stateMutability": "view",
      "type": "function"
    },
    {
      "constant": true,
      "inputs": [],
      "name": "viewTopBidder",
      "outputs": [
        {
          "internalType": "address",
          "name": "",
          "type": "address"
        }
      ],
      "payable": false,
      "stateMutability": "view",
      "type": "function"
    },
    {
      "constant": true,
      "inputs": [],
      "name": "viewTopBidValue",
      "outputs": [
        {
          "internalType": "uint256",
          "name": "",
          "type": "uint256"
        }
      ],
      "payable": false,
      "stateMutability": "view",
      "type": "function"
    },
    {
      "constant": true,
      "inputs": [
        {
          "internalType": "uint256",
          "name": "valueBid",
          "type": "uint256"
        },
        {
          "internalType": "bool",
          "name": "bidFake",
          "type": "bool"
        },
        {
          "internalType": "bytes32",
          "name": "secret",
          "type": "bytes32"
        }
      ],
      "name": "checkHashValue",
      "outputs": [
        {
          "internalType": "bytes32",
          "name": "",
          "type": "bytes32"
        }
      ],
      "payable": false,
      "stateMutability": "pure",
      "type": "function"
    },
    {
      "constant": true,
      "inputs": [
        {
          "internalType": "address",
          "name": "bidderAddress",
          "type": "address"
        },
        {
          "internalType": "string",
          "name": "targetDomain",
          "type": "string"
        }
      ],
      "name": "checkOrigHashValue",
      "outputs": [
        {
          "internalType": "bytes32",
          "name": "",
          "type": "bytes32"
        }
      ],
      "payable": false,
      "stateMutability": "view",
      "type": "function"
    },
    {
      "constant": true,
      "inputs": [
        {
          "internalType": "uint256",
          "name": "value",
          "type": "uint256"
        }
      ],
      "name": "valueInWei",
      "outputs": [
        {
          "internalType": "uint256",
          "name": "",
          "type": "uint256"
        }
      ],
      "payable": false,
      "stateMutability": "pure",
      "type": "function"
    },
    {
      "constant": true,
      "inputs": [
        {
          "internalType": "address",
          "name": "addressToCheck",
          "type": "address"
        }
      ],
      "name": "viewBidStatus",
      "outputs": [
        {
          "internalType": "bool",
          "name": "success",
          "type": "bool"
        }
      ],
      "payable": false,
      "stateMutability": "view",
      "type": "function"
    },
    {
      "constant": true,
      "inputs": [
        {
          "internalType": "address",
          "name": "targetAddress",
          "type": "address"
        }
      ],
      "name": "viewDomainOfAddress",
      "outputs": [
        {
          "internalType": "string",
          "name": "",
          "type": "string"
        }
      ],
      "payable": false,
      "stateMutability": "view",
      "type": "function"
    }
  ],
  "bytecode": "0x60806040526104b060035561025860045534801561001c57600080fd5b5033600260006101000a81548173ffffffffffffffffffffffffffffffffffffffff021916908373ffffffffffffffffffffffffffffffffffffffff160217905550600260009054906101000a900473ffffffffffffffffffffffffffffffffffffffff16600560006101000a81548173ffffffffffffffffffffffffffffffffffffffff021916908373ffffffffffffffffffffffffffffffffffffffff160217905550600354420160068190555060045460065401600781905550611f01806100e86000396000f3fe6080604052600436106101665760003560e01c80636736c8cc116100d1578063bcf772ea1161008a578063e63c4db611610064578063e63c4db614610cdb578063ea20166014610d40578063ecb70fb714610e48578063efcdd73e14610e7757610166565b8063bcf772ea14610a80578063bdfe7d4714610b7c578063d9c4870e14610c8457610166565b80636736c8cc1461073857806377a21ba8146107fd57806377c8bee2146108c757806384692d8b146109165780638da5cb5b146109fe578063a35bb3a914610a5557610166565b806337271cc71161012357806337271cc7146104985780633dc518da146104af57806343562ddd1461058f5780635107e101146105e65780635ae9aa60146106e2578063636bf7301461070d57610166565b806301333f06146101685780630fa95c33146101bf578063190072eb146102c25780631a81d59c1461038c57806329d5c4ff146103b75780632a24f46c14610481575b005b34801561017457600080fd5b5061017d610ee0565b604051808273ffffffffffffffffffffffffffffffffffffffff1673ffffffffffffffffffffffffffffffffffffffff16815260200191505060405180910390f35b3480156101cb57600080fd5b506102a5600480360360408110156101e257600080fd5b81019080803573ffffffffffffffffffffffffffffffffffffffff1690602001909291908035906020019064010000000081111561021f57600080fd5b82018360208201111561023157600080fd5b8035906020019184600183028401116401000000008311171561025357600080fd5b91908080601f016020809104026020016040519081016040528093929190818152602001838380828437600081840152601f19601f820116905080830192505050505050509192919290505050610f06565b604051808381526020018281526020019250505060405180910390f35b3480156102ce57600080fd5b50610311600480360360208110156102e557600080fd5b81019080803573ffffffffffffffffffffffffffffffffffffffff169060200190929190505050610f4d565b6040518080602001828103825283818151815260200191508051906020019080838360005b83811015610351578082015181840152602081019050610336565b50505050905090810190601f16801561037e5780820380516001836020036101000a031916815260200191505b509250505060405180910390f35b34801561039857600080fd5b506103a161102d565b6040518082815260200191505060405180910390f35b3480156103c357600080fd5b50610406600480360360208110156103da57600080fd5b81019080803573ffffffffffffffffffffffffffffffffffffffff169060200190929190505050611033565b6040518080602001828103825283818151815260200191508051906020019080838360005b8381101561044657808201518184015260208101905061042b565b50505050905090810190601f1680156104735780820380516001836020036101000a031916815260200191505b509250505060405180910390f35b34801561048d57600080fd5b50610496611113565b005b3480156104a457600080fd5b506104ad611254565b005b3480156104bb57600080fd5b50610575600480360360208110156104d257600080fd5b81019080803590602001906401000000008111156104ef57600080fd5b82018360208201111561050157600080fd5b8035906020019184600183028401116401000000008311171561052357600080fd5b91908080601f016020809104026020016040519081016040528093929190818152602001838380828437600081840152601f19601f820116905080830192505050505050509192919290505050611331565b604051808215151515815260200191505060405180910390f35b34801561059b57600080fd5b506105a4611402565b604051808273ffffffffffffffffffffffffffffffffffffffff1673ffffffffffffffffffffffffffffffffffffffff16815260200191505060405180910390f35b3480156105f257600080fd5b506106cc6004803603604081101561060957600080fd5b81019080803573ffffffffffffffffffffffffffffffffffffffff1690602001909291908035906020019064010000000081111561064657600080fd5b82018360208201111561065857600080fd5b8035906020019184600183028401116401000000008311171561067a57600080fd5b91908080601f016020809104026020016040519081016040528093929190818152602001838380828437600081840152601f19601f82011690508083019250505050505050919291929050505061142c565b6040518082815260200191505060405180910390f35b3480156106ee57600080fd5b506106f76114e0565b6040518082815260200191505060405180910390f35b34801561071957600080fd5b506107226114ea565b6040518082815260200191505060405180910390f35b6107fb6004803603604081101561074e57600080fd5b810190808035906020019064010000000081111561076b57600080fd5b82018360208201111561077d57600080fd5b8035906020019184600183028401116401000000008311171561079f57600080fd5b91908080601f016020809104026020016040519081016040528093929190818152602001838380828437600081840152601f19601f820116905080830192505050505050509192919290803590602001909291905050506114f0565b005b34801561080957600080fd5b5061084c6004803603602081101561082057600080fd5b81019080803573ffffffffffffffffffffffffffffffffffffffff1690602001909291905050506115d6565b6040518080602001828103825283818151815260200191508051906020019080838360005b8381101561088c578082015181840152602081019050610871565b50505050905090810190601f1680156108b95780820380516001836020036101000a031916815260200191505b509250505060405180910390f35b3480156108d357600080fd5b50610900600480360360208110156108ea57600080fd5b8101908080359060200190929190505050611686565b6040518082815260200191505060405180910390f35b34801561092257600080fd5b506109fc6004803603608081101561093957600080fd5b810190808035906020019064010000000081111561095657600080fd5b82018360208201111561096857600080fd5b8035906020019184600183028401116401000000008311171561098a57600080fd5b91908080601f016020809104026020016040519081016040528093929190818152602001838380828437600081840152601f19601f820116905080830192505050505050509192919290803590602001909291908035151590602001909291908035906020019092919050505061169a565b005b348015610a0a57600080fd5b50610a1361182a565b604051808273ffffffffffffffffffffffffffffffffffffffff1673ffffffffffffffffffffffffffffffffffffffff16815260200191505060405180910390f35b348015610a6157600080fd5b50610a6a611850565b6040518082815260200191505060405180910390f35b348015610a8c57600080fd5b50610b6660048036036040811015610aa357600080fd5b8101908080359060200190640100000000811115610ac057600080fd5b820183602082011115610ad257600080fd5b80359060200191846001830284011164010000000083111715610af457600080fd5b91908080601f016020809104026020016040519081016040528093929190818152602001838380828437600081840152601f19601f820116905080830192505050505050509192919290803573ffffffffffffffffffffffffffffffffffffffff169060200190929190505050611856565b6040518082815260200191505060405180910390f35b348015610b8857600080fd5b50610c4260048036036020811015610b9f57600080fd5b8101908080359060200190640100000000811115610bbc57600080fd5b820183602082011115610bce57600080fd5b80359060200191846001830284011164010000000083111715610bf057600080fd5b91908080601f016020809104026020016040519081016040528093929190818152602001838380828437600081840152601f19601f82011690508083019250505050505050919291929050505061190a565b604051808273ffffffffffffffffffffffffffffffffffffffff1673ffffffffffffffffffffffffffffffffffffffff16815260200191505060405180910390f35b348015610c9057600080fd5b50610c99611953565b604051808273ffffffffffffffffffffffffffffffffffffffff1673ffffffffffffffffffffffffffffffffffffffff16815260200191505060405180910390f35b348015610ce757600080fd5b50610d2a60048036036060811015610cfe57600080fd5b810190808035906020019092919080351515906020019092919080359060200190929190505050611979565b6040518082815260200191505060405180910390f35b348015610d4c57600080fd5b50610e0660048036036020811015610d6357600080fd5b8101908080359060200190640100000000811115610d8057600080fd5b820183602082011115610d9257600080fd5b80359060200191846001830284011164010000000083111715610db457600080fd5b91908080601f016020809104026020016040519081016040528093929190818152602001838380828437600081840152601f19601f8201169050808301925050505050505091929192905050506119c2565b604051808273ffffffffffffffffffffffffffffffffffffffff1673ffffffffffffffffffffffffffffffffffffffff16815260200191505060405180910390f35b348015610e5457600080fd5b50610e5d611a55565b604051808215151515815260200191505060405180910390f35b348015610e8357600080fd5b50610ec660048036036020811015610e9a57600080fd5b81019080803573ffffffffffffffffffffffffffffffffffffffff169060200190929190505050611a68565b604051808215151515815260200191505060405180910390f35b600a60009054906101000a900473ffffffffffffffffffffffffffffffffffffffff1681565b600960205281600052604060002081805160208101820180518482526020830160208501208183528095505050505050600091509150508060000154908060010154905082565b60606000808373ffffffffffffffffffffffffffffffffffffffff1673ffffffffffffffffffffffffffffffffffffffff1681526020019081526020016000208054600181600116156101000203166002900480601f0160208091040260200160405190810160405280929190818152602001828054600181600116156101000203166002900480156110215780601f10610ff657610100808354040283529160200191611021565b820191906000526020600020905b81548152906001019060200180831161100457829003601f168201915b50505050509050919050565b60065481565b60606000808373ffffffffffffffffffffffffffffffffffffffff1673ffffffffffffffffffffffffffffffffffffffff1681526020019081526020016000208054600181600116156101000203166002900480601f0160208091040260200160405190810160405280929190818152602001828054600181600116156101000203166002900480156111075780601f106110dc57610100808354040283529160200191611107565b820191906000526020600020905b8154815290600101906020018083116110ea57829003601f168201915b50505050509050919050565b60075480421161112257600080fd5b600860009054906101000a900460ff161561113c57600080fd5b7f090e5bfb062255c0961c85c80c3db4215b52d2c0f61e013253e3dc5c448d25a4600a60009054906101000a900473ffffffffffffffffffffffffffffffffffffffff16600b54604051808373ffffffffffffffffffffffffffffffffffffffff1673ffffffffffffffffffffffffffffffffffffffff1681526020018281526020019250505060405180910390a16001600860006101000a81548160ff021916908315150217905550600560009054906101000a900473ffffffffffffffffffffffffffffffffffffffff1673ffffffffffffffffffffffffffffffffffffffff166108fc600b549081150290604051600060405180830381858888f19350505050158015611250573d6000803e3d6000fd5b5050565b6000600c60003373ffffffffffffffffffffffffffffffffffffffff1673ffffffffffffffffffffffffffffffffffffffff168152602001908152602001600020549050600081111561132e576000600c60003373ffffffffffffffffffffffffffffffffffffffff1673ffffffffffffffffffffffffffffffffffffffff168152602001908152602001600020819055503373ffffffffffffffffffffffffffffffffffffffff166108fc829081150290604051600060405180830381858888f1935050505015801561132c573d6000803e3d6000fd5b505b50565b60008073ffffffffffffffffffffffffffffffffffffffff166001836040518082805190602001908083835b60208310611380578051825260208201915060208101905060208303925061135d565b6001836020036101000a038019825116818451168082178552505050505050905001915050908152602001604051809103902060009054906101000a900473ffffffffffffffffffffffffffffffffffffffff1673ffffffffffffffffffffffffffffffffffffffff16146113f857600090506113fd565b600190505b919050565b6000600a60009054906101000a900473ffffffffffffffffffffffffffffffffffffffff16905090565b6000600960008473ffffffffffffffffffffffffffffffffffffffff1673ffffffffffffffffffffffffffffffffffffffff168152602001908152602001600020826040518082805190602001908083835b602083106114a1578051825260208201915060208101905060208303925061147e565b6001836020036101000a038019825116818451168082178552505050505050905001915050908152602001604051809103902060000154905092915050565b6000600b54905090565b600b5481565b6006548042106114ff57600080fd5b604051806040016040528083815260200134815250600960003373ffffffffffffffffffffffffffffffffffffffff1673ffffffffffffffffffffffffffffffffffffffff168152602001908152602001600020846040518082805190602001908083835b602083106115875780518252602082019150602081019050602083039250611564565b6001836020036101000a03801982511681845116808217855250505050505090500191505090815260200160405180910390206000820151816000015560208201518160010155905050505050565b60006020528060005260406000206000915090508054600181600116156101000203166002900480601f01602080910402602001604051908101604052809291908181526020018280546001816001161561010002031660029004801561167e5780601f106116535761010080835404028352916020019161167e565b820191906000526020600020905b81548152906001019060200180831161166157829003601f168201915b505050505081565b6000670de0b6b3a764000082029050919050565b6000806000600960003373ffffffffffffffffffffffffffffffffffffffff1673ffffffffffffffffffffffffffffffffffffffff168152602001908152602001600020876040518082805190602001908083835b6020831061171257805182526020820191506020810190506020830392506116ef565b6001836020036101000a0380198251168184511680821785525050505050509050019150509081526020016040518091039020905060008060008888889250925092506000611762848484611979565b90506000611770338d61142c565b9050818114611786575050505050505050611824565b85600101548801975061179885611686565b9650831580156117ac575086866001015410155b156117c8576117bc33888e611ac2565b156117c75786880397505b5b6000801b86600001819055503373ffffffffffffffffffffffffffffffffffffffff166108fc899081150290604051600060405180830381858888f1935050505015801561181a573d6000803e3d6000fd5b5050505050505050505b50505050565b600260009054906101000a900473ffffffffffffffffffffffffffffffffffffffff1681565b60075481565b6000600960008373ffffffffffffffffffffffffffffffffffffffff1673ffffffffffffffffffffffffffffffffffffffff168152602001908152602001600020836040518082805190602001908083835b602083106118cb57805182526020820191506020810190506020830392506118a8565b6001836020036101000a038019825116818451168082178552505050505050905001915050908152602001604051809103902060010154905092915050565b6001818051602081018201805184825260208301602085012081835280955050505050506000915054906101000a900473ffffffffffffffffffffffffffffffffffffffff1681565b600560009054906101000a900473ffffffffffffffffffffffffffffffffffffffff1681565b600083838360405160200180848152602001831515151560f81b815260010182815260200193505050506040516020818303038152906040528051906020012090509392505050565b60006001826040518082805190602001908083835b602083106119fa57805182526020820191506020810190506020830392506119d7565b6001836020036101000a038019825116818451168082178552505050505050905001915050908152602001604051809103902060009054906101000a900473ffffffffffffffffffffffffffffffffffffffff169050919050565b600860009054906101000a900460ff1681565b60008173ffffffffffffffffffffffffffffffffffffffff16600a60009054906101000a900473ffffffffffffffffffffffffffffffffffffffff1673ffffffffffffffffffffffffffffffffffffffff16149050919050565b6000600b548311611ad65760009050611dd8565b600073ffffffffffffffffffffffffffffffffffffffff16600a60009054906101000a900473ffffffffffffffffffffffffffffffffffffffff1673ffffffffffffffffffffffffffffffffffffffff1614611c9057600a60009054906101000a900473ffffffffffffffffffffffffffffffffffffffff1673ffffffffffffffffffffffffffffffffffffffff166108fc600b549081150290604051600060405180830381858888f19350505050158015611b96573d6000803e3d6000fd5b50600080600a60009054906101000a900473ffffffffffffffffffffffffffffffffffffffff1673ffffffffffffffffffffffffffffffffffffffff1673ffffffffffffffffffffffffffffffffffffffff1681526020019081526020016000206000611c039190611ddf565b6001826040518082805190602001908083835b60208310611c395780518252602082019150602081019050602083039250611c16565b6001836020036101000a038019825116818451168082178552505050505050905001915050908152602001604051809103902060006101000a81549073ffffffffffffffffffffffffffffffffffffffff02191690555b82600b8190555083600a60006101000a81548173ffffffffffffffffffffffffffffffffffffffff021916908373ffffffffffffffffffffffffffffffffffffffff160217905550816000808673ffffffffffffffffffffffffffffffffffffffff1673ffffffffffffffffffffffffffffffffffffffff1681526020019081526020016000209080519060200190611d2a929190611e27565b50836001836040518082805190602001908083835b60208310611d625780518252602082019150602081019050602083039250611d3f565b6001836020036101000a038019825116818451168082178552505050505050905001915050908152602001604051809103902060006101000a81548173ffffffffffffffffffffffffffffffffffffffff021916908373ffffffffffffffffffffffffffffffffffffffff160217905550600190505b9392505050565b50805460018160011615610100020316600290046000825580601f10611e055750611e24565b601f016020900490600052602060002090810190611e239190611ea7565b5b50565b828054600181600116156101000203166002900490600052602060002090601f016020900481019282601f10611e6857805160ff1916838001178555611e96565b82800160010185558215611e96579182015b82811115611e95578251825591602001919060010190611e7a565b5b509050611ea39190611ea7565b5090565b611ec991905b80821115611ec5576000816000905550600101611ead565b5090565b9056fea265627a7a72315820cfba3130423761423c093616f0e3d68afc4aee2bf30fd7a9bce8a9cfaee37c7164736f6c63430005100032",
  "source": "pragma solidity ^0.5.16;\n\ncontract NtuDNR{\n    // ---- Declarations ----\n\n    // *** General section for domain inquiries ***\n    mapping (address => string) public domainNames;\n    mapping (string => address) public addresses;\n    address payable public owner;\n\n    // *** Bidding section ***\n    uint _timeBidding = 20 minutes; //change bidding duration here\n    uint _revealTime = 10 minutes; //change reveal period here\n\n    struct Bid {\n        bytes32 blindBid;\n        uint256 deposit;\n    }\n\n    address payable public beneficiaryAddress;\n    uint256 public endBidding;\n    uint256 public endReveal;\n    bool public hasEnded;\n\n    mapping(address => mapping (string => Bid)) public bid;\n\n    address payable public topBidder;\n    uint public topBid;\n\n    //Allowed withdrawals of previous bids\n    mapping(address => uint256) returnsPending;\n\n    event AuctionComplete(address winner, uint256 topBid);\n\n    modifier beforeOnly(uint256 _time) {\n        require(now < _time);\n        _;\n    }\n    modifier afterOnly(uint256 _time) {\n        require(now > _time);\n        _;\n    }\n\n\n    // ---- Functions ----\n\n    constructor () public {\n        owner = msg.sender;\n        beneficiaryAddress = owner;\n        endBidding = now + _timeBidding;\n        endReveal = endBidding + _revealTime;\n    }\n\n    // *** General functions ***\n    /*\n    function createDomain(address receiver, string memory inputDomainName) public {\n\n        bool createSuccess = this.searchDomain(inputDomainName); // TO-DO Check validity of input domain\n        require(createSuccess, \"Your domain has been taken.\");\n        domainNames[receiver] = inputDomainName; // Map input address to domain\n        addresses[inputDomainName] = receiver; // Map domain to input address, assuming each address only has 1 address\n    }\n*/\n    function searchDomain(string memory targetDomain) view public returns (bool success){\n        if (addresses[targetDomain] != address(0)) return false; //Check if the domain is registered\n        return true;\n    }\n\n    function queryAddress(string memory targetDomain) view public returns (address){\n        return (addresses[targetDomain]); // domain as key\n    }\n\n    function queryDomain(address targetAddress) view public returns (string memory) {\n        return domainNames[targetAddress]; // address as key\n    }\n\n    // *** Blind Auction functions ***\n    function makeBid(string memory targetDomain, bytes32 _blindBid) public payable beforeOnly(endBidding) {\n        bid[msg.sender][targetDomain] = (Bid({blindBid: _blindBid, deposit: msg.value}));\n    }\n\n    /// Blinded bids are revealed. All invalid bids that were blinded\n    /// correctly will be refunded and for every bid except for\n    /// the total highest.\n\n    //@@@@@@@@@@@@@@@@@@@@@@@@@@@@@@@@@@@@@@@@@@@@@@@@@@@@@@@\n    //**** IMPLEMENT THIS WHEN DONE WITH TESTING PHASE ****\n    //afterOnly(endBidding) beforeOnly(endReveal)\n    function reveal(string memory targetDomain, uint _values, bool _fake, bytes32 _secret) public{\n        uint256 refund;\n        uint256 valueBidInWei;\n        Bid storage thisBid = bid[msg.sender][targetDomain];\n        (uint valueBid, bool bidFake, bytes32 secret) = (\n        _values,\n        _fake,\n        _secret\n        );\n        bytes32 check = checkHashValue(valueBid, bidFake, secret);\n        bytes32 orig = checkOrigHashValue(msg.sender, targetDomain);\n        if (orig != check) {\n            //Bid was not properly revealed\n            //Deposit is not refunded\n            return;\n        }\n        refund += thisBid.deposit;\n        valueBidInWei = valueInWei(valueBid);\n        //Reduce the refund amount for the top bidder by value bidded\n        if (!bidFake && thisBid.deposit >= valueBidInWei) {\n            if (bidPlace(msg.sender, valueBidInWei, targetDomain)) {\n                refund -= valueBidInWei;\n            }\n        }\n\n        //Prevents sender from reclaiming the same deposit\n        thisBid.blindBid = bytes32(0);\n        msg.sender.transfer(refund);\n    }\n\n    // This function is \"internal\", meaning that it\n    // may only be called from inside the contract itself (or from\n    // contracts deriving from it).\n    // Checks the bid value and re-verifies the top bidder\n    function bidPlace(address payable bidder, uint valueBid, string memory targetDomain)\n    internal\n    returns (bool success)\n    {\n        if (valueBid<= topBid) {\n            return false;\n        }\n\n        if (topBidder!= address(0)){\n            //Refund the previous top bidder\n            topBidder.transfer(topBid);\n            delete domainNames[topBidder];\n            delete addresses[targetDomain];\n        }\n        topBid = valueBid;\n        topBidder = bidder;\n        domainNames[bidder] = targetDomain;\n        addresses[targetDomain] = bidder;\n        return true;\n    }\n\n    /// Withdraw an overbid bid.\n    function withdrawBid() public {\n        uint amount = returnsPending[msg.sender];\n        if (amount > 0) {\n            // It is crucial that this is set to zero since the recipient\n            // can call this function repeatedly as part of the receiving call\n            // before `transfer` is returned (see the remark above concerning\n            // conditions -> effects -> interaction).\n            returnsPending[msg.sender] = 0;\n            msg.sender.transfer(amount);\n        }\n    }\n\n    /// Auction is completed and the top bid is sent\n    /// to the beneficiary's address.\n    function auctionEnd() public afterOnly(endReveal) {\n        require(!hasEnded);\n\n        emit AuctionComplete(topBidder, topBid);\n        hasEnded = true;\n        beneficiaryAddress.transfer(topBid);\n    }\n\n\n    function viewBidDeposit(string memory targetDomain, address targetAddress) public view returns (uint256 deposit){\n        return bid[targetAddress][targetDomain].deposit;\n    }\n\n    function viewTopBidder() public view returns(address){\n        return topBidder;\n    }\n\n    function viewTopBidValue() public view returns (uint){\n        return topBid;\n    }\n\n    function checkHashValue(uint valueBid, bool bidFake, bytes32 secret) public pure returns (bytes32){\n        return keccak256(abi.encodePacked(valueBid, bidFake, secret));\n    }\n\n    function checkOrigHashValue(address bidderAddress, string memory targetDomain) public view returns (bytes32){\n        return bid[bidderAddress][targetDomain].blindBid;\n    }\n\n    function valueInWei(uint256 value) public pure returns (uint256){\n        return value*(1 ether);\n    }\n\n    function viewBidStatus(address addressToCheck) public view returns (bool success){\n        return topBidder == addressToCheck;\n    }\n\n    function viewDomainOfAddress (address targetAddress) public view returns (string memory) {\n        return domainNames[targetAddress];\n    }\n\n    //fallback function\n    function() external payable { }\n}\n",
  "sourcePath": "/Users/aditisaini/Desktop/Courses/Year 4 Sem 1/Blockchain/NtuDNR/contracts/NtuDNR.sol",
  "compiler": {
    "name": "solc",
    "version": "0.5.16+commit.9c3226ce.Emscripten.clang"
  },
  "schemaVersion": "3.3.1",
  "updatedAt": "2020-11-02T03:41:16.207Z",
  "devdoc": {
    "methods": {}
  },
  "userdoc": {
    "methods": {
      "auctionEnd()": {
        "notice": "Auction is completed and the top bid is sent to the beneficiary's address."
      },
      "reveal(string,uint256,bool,bytes32)": {
        "notice": "Blinded bids are revealed. All invalid bids that were blinded correctly will be refunded and for every bid except for the total highest."
      },
      "withdrawBid()": {
        "notice": "Withdraw an overbid bid."
      }
    }
  }
}