{
  "contractName": "NtuDNR",
  "abi": [
    {
      "inputs": [],
      "payable": false,
      "stateMutability": "nonpayable",
      "type": "constructor"
    },
    {
      "anonymous": false,
      "inputs": [
        {
          "indexed": false,
          "internalType": "address",
          "name": "winner",
          "type": "address"
        },
        {
          "indexed": false,
          "internalType": "uint256",
          "name": "topBid",
          "type": "uint256"
        }
      ],
      "name": "AuctionComplete",
      "type": "event"
    },
    {
      "constant": true,
      "inputs": [
        {
          "internalType": "string",
          "name": "",
          "type": "string"
        }
      ],
      "name": "addresses",
      "outputs": [
        {
          "internalType": "address",
          "name": "",
          "type": "address"
        }
      ],
      "payable": false,
      "stateMutability": "view",
      "type": "function"
    },
    {
      "constant": true,
      "inputs": [],
      "name": "beneficiaryAddress",
      "outputs": [
        {
          "internalType": "address payable",
          "name": "",
          "type": "address"
        }
      ],
      "payable": false,
      "stateMutability": "view",
      "type": "function"
    },
    {
      "constant": true,
      "inputs": [
        {
          "internalType": "address",
          "name": "",
          "type": "address"
        },
        {
          "internalType": "string",
          "name": "",
          "type": "string"
        }
      ],
      "name": "bid",
      "outputs": [
        {
          "internalType": "bytes32",
          "name": "blindBid",
          "type": "bytes32"
        },
        {
          "internalType": "uint256",
          "name": "deposit",
          "type": "uint256"
        }
      ],
      "payable": false,
      "stateMutability": "view",
      "type": "function"
    },
    {
      "constant": true,
      "inputs": [
        {
          "internalType": "address",
          "name": "",
          "type": "address"
        }
      ],
      "name": "domainNames",
      "outputs": [
        {
          "internalType": "string",
          "name": "",
          "type": "string"
        }
      ],
      "payable": false,
      "stateMutability": "view",
      "type": "function"
    },
    {
      "constant": true,
      "inputs": [],
      "name": "endBidding",
      "outputs": [
        {
          "internalType": "uint256",
          "name": "",
          "type": "uint256"
        }
      ],
      "payable": false,
      "stateMutability": "view",
      "type": "function"
    },
    {
      "constant": true,
      "inputs": [],
      "name": "endReveal",
      "outputs": [
        {
          "internalType": "uint256",
          "name": "",
          "type": "uint256"
        }
      ],
      "payable": false,
      "stateMutability": "view",
      "type": "function"
    },
    {
      "constant": true,
      "inputs": [],
      "name": "hasEnded",
      "outputs": [
        {
          "internalType": "bool",
          "name": "",
          "type": "bool"
        }
      ],
      "payable": false,
      "stateMutability": "view",
      "type": "function"
    },
    {
      "constant": true,
      "inputs": [],
      "name": "owner",
      "outputs": [
        {
          "internalType": "address payable",
          "name": "",
          "type": "address"
        }
      ],
      "payable": false,
      "stateMutability": "view",
      "type": "function"
    },
    {
      "constant": true,
      "inputs": [],
      "name": "topBid",
      "outputs": [
        {
          "internalType": "uint256",
          "name": "",
          "type": "uint256"
        }
      ],
      "payable": false,
      "stateMutability": "view",
      "type": "function"
    },
    {
      "constant": true,
      "inputs": [],
      "name": "topBidder",
      "outputs": [
        {
          "internalType": "address",
          "name": "",
          "type": "address"
        }
      ],
      "payable": false,
      "stateMutability": "view",
      "type": "function"
    },
    {
      "constant": true,
      "inputs": [
        {
          "internalType": "string",
          "name": "targetDomain",
          "type": "string"
        }
      ],
      "name": "searchDomain",
      "outputs": [
        {
          "internalType": "bool",
          "name": "success",
          "type": "bool"
        }
      ],
      "payable": false,
      "stateMutability": "view",
      "type": "function"
    },
    {
      "constant": true,
      "inputs": [
        {
          "internalType": "string",
          "name": "targetDomain",
          "type": "string"
        }
      ],
      "name": "queryAddress",
      "outputs": [
        {
          "internalType": "address",
          "name": "",
          "type": "address"
        }
      ],
      "payable": false,
      "stateMutability": "view",
      "type": "function"
    },
    {
      "constant": true,
      "inputs": [
        {
          "internalType": "address",
          "name": "targetAddress",
          "type": "address"
        }
      ],
      "name": "queryDomain",
      "outputs": [
        {
          "internalType": "string",
          "name": "",
          "type": "string"
        }
      ],
      "payable": false,
      "stateMutability": "view",
      "type": "function"
    },
    {
      "constant": false,
      "inputs": [
        {
          "internalType": "string",
          "name": "targetDomain",
          "type": "string"
        },
        {
          "internalType": "bytes32",
          "name": "_blindBid",
          "type": "bytes32"
        }
      ],
      "name": "makeBid",
      "outputs": [],
      "payable": true,
      "stateMutability": "payable",
      "type": "function"
    },
    {
      "constant": false,
      "inputs": [
        {
          "internalType": "string",
          "name": "targetDomain",
          "type": "string"
        },
        {
          "internalType": "uint256",
          "name": "_values",
          "type": "uint256"
        },
        {
          "internalType": "bool",
          "name": "_fake",
          "type": "bool"
        },
        {
          "internalType": "bytes32",
          "name": "_secret",
          "type": "bytes32"
        }
      ],
      "name": "reveal",
      "outputs": [
        {
          "internalType": "uint256",
          "name": "",
          "type": "uint256"
        }
      ],
      "payable": false,
      "stateMutability": "nonpayable",
      "type": "function"
    },
    {
      "constant": false,
      "inputs": [],
      "name": "withdrawBid",
      "outputs": [],
      "payable": false,
      "stateMutability": "nonpayable",
      "type": "function"
    },
    {
      "constant": false,
      "inputs": [],
      "name": "auctionEnd",
      "outputs": [],
      "payable": false,
      "stateMutability": "nonpayable",
      "type": "function"
    },
    {
      "constant": true,
      "inputs": [
        {
          "internalType": "string",
          "name": "targetDomain",
          "type": "string"
        },
        {
          "internalType": "address",
          "name": "targetAddress",
          "type": "address"
        }
      ],
      "name": "viewBidDeposit",
      "outputs": [
        {
          "internalType": "uint256",
          "name": "deposit",
          "type": "uint256"
        }
      ],
      "payable": false,
      "stateMutability": "view",
      "type": "function"
    },
    {
      "constant": true,
      "inputs": [],
      "name": "viewTopBidder",
      "outputs": [
        {
          "internalType": "address",
          "name": "",
          "type": "address"
        }
      ],
      "payable": false,
      "stateMutability": "view",
      "type": "function"
    },
    {
      "constant": true,
      "inputs": [],
      "name": "viewTopBidValue",
      "outputs": [
        {
          "internalType": "uint256",
          "name": "",
          "type": "uint256"
        }
      ],
      "payable": false,
      "stateMutability": "view",
      "type": "function"
    },
    {
      "constant": true,
      "inputs": [
        {
          "internalType": "uint256",
          "name": "valueBid",
          "type": "uint256"
        },
        {
          "internalType": "bool",
          "name": "bidFake",
          "type": "bool"
        },
        {
          "internalType": "bytes32",
          "name": "secret",
          "type": "bytes32"
        }
      ],
      "name": "checkHashValue",
      "outputs": [
        {
          "internalType": "bytes32",
          "name": "",
          "type": "bytes32"
        }
      ],
      "payable": false,
      "stateMutability": "pure",
      "type": "function"
    },
    {
      "constant": true,
      "inputs": [
        {
          "internalType": "address",
          "name": "bidderAddress",
          "type": "address"
        },
        {
          "internalType": "string",
          "name": "targetDomain",
          "type": "string"
        }
      ],
      "name": "checkOrigHashValue",
      "outputs": [
        {
          "internalType": "bytes32",
          "name": "",
          "type": "bytes32"
        }
      ],
      "payable": false,
      "stateMutability": "view",
      "type": "function"
    }
  ],
  "bytecode": "0x6080604052607860035561025860045534801561001b57600080fd5b5033600260006101000a81548173ffffffffffffffffffffffffffffffffffffffff021916908373ffffffffffffffffffffffffffffffffffffffff160217905550600260009054906101000a900473ffffffffffffffffffffffffffffffffffffffff16600560006101000a81548173ffffffffffffffffffffffffffffffffffffffff021916908373ffffffffffffffffffffffffffffffffffffffff160217905550600354420160068190555060045460065401600781905550611c1d806100e76000396000f3fe6080604052600436106101355760003560e01c80636736c8cc116100ab578063bcf772ea1161006f578063bcf772ea1461094d578063bdfe7d4714610a49578063d9c4870e14610b51578063e63c4db614610ba8578063ea20166014610c0d578063ecb70fb714610d1557610135565b80636736c8cc1461064057806377a21ba81461070557806384692d8b146107cf5780638da5cb5b146108cb578063a35bb3a91461092257610135565b806337271cc7116100fd57806337271cc7146103a05780633dc518da146103b757806343562ddd146104975780635107e101146104ee5780635ae9aa60146105ea578063636bf7301461061557610135565b806301333f061461013a5780630fa95c33146101915780631a81d59c1461029457806329d5c4ff146102bf5780632a24f46c14610389575b600080fd5b34801561014657600080fd5b5061014f610d44565b604051808273ffffffffffffffffffffffffffffffffffffffff1673ffffffffffffffffffffffffffffffffffffffff16815260200191505060405180910390f35b34801561019d57600080fd5b50610277600480360360408110156101b457600080fd5b81019080803573ffffffffffffffffffffffffffffffffffffffff169060200190929190803590602001906401000000008111156101f157600080fd5b82018360208201111561020357600080fd5b8035906020019184600183028401116401000000008311171561022557600080fd5b91908080601f016020809104026020016040519081016040528093929190818152602001838380828437600081840152601f19601f820116905080830192505050505050509192919290505050610d6a565b604051808381526020018281526020019250505060405180910390f35b3480156102a057600080fd5b506102a9610db1565b6040518082815260200191505060405180910390f35b3480156102cb57600080fd5b5061030e600480360360208110156102e257600080fd5b81019080803573ffffffffffffffffffffffffffffffffffffffff169060200190929190505050610db7565b6040518080602001828103825283818151815260200191508051906020019080838360005b8381101561034e578082015181840152602081019050610333565b50505050905090810190601f16801561037b5780820380516001836020036101000a031916815260200191505b509250505060405180910390f35b34801561039557600080fd5b5061039e610e97565b005b3480156103ac57600080fd5b506103b5610fd8565b005b3480156103c357600080fd5b5061047d600480360360208110156103da57600080fd5b81019080803590602001906401000000008111156103f757600080fd5b82018360208201111561040957600080fd5b8035906020019184600183028401116401000000008311171561042b57600080fd5b91908080601f016020809104026020016040519081016040528093929190818152602001838380828437600081840152601f19601f8201169050808301925050505050505091929192905050506110b5565b604051808215151515815260200191505060405180910390f35b3480156104a357600080fd5b506104ac611186565b604051808273ffffffffffffffffffffffffffffffffffffffff1673ffffffffffffffffffffffffffffffffffffffff16815260200191505060405180910390f35b3480156104fa57600080fd5b506105d46004803603604081101561051157600080fd5b81019080803573ffffffffffffffffffffffffffffffffffffffff1690602001909291908035906020019064010000000081111561054e57600080fd5b82018360208201111561056057600080fd5b8035906020019184600183028401116401000000008311171561058257600080fd5b91908080601f016020809104026020016040519081016040528093929190818152602001838380828437600081840152601f19601f8201169050808301925050505050505091929192905050506111b0565b6040518082815260200191505060405180910390f35b3480156105f657600080fd5b506105ff611269565b6040518082815260200191505060405180910390f35b34801561062157600080fd5b5061062a611273565b6040518082815260200191505060405180910390f35b6107036004803603604081101561065657600080fd5b810190808035906020019064010000000081111561067357600080fd5b82018360208201111561068557600080fd5b803590602001918460018302840111640100000000831117156106a757600080fd5b91908080601f016020809104026020016040519081016040528093929190818152602001838380828437600081840152601f19601f82011690508083019250505050505050919291929080359060200190929190505050611279565b005b34801561071157600080fd5b506107546004803603602081101561072857600080fd5b81019080803573ffffffffffffffffffffffffffffffffffffffff16906020019092919050505061135f565b6040518080602001828103825283818151815260200191508051906020019080838360005b83811015610794578082015181840152602081019050610779565b50505050905090810190601f1680156107c15780820380516001836020036101000a031916815260200191505b509250505060405180910390f35b3480156107db57600080fd5b506108b5600480360360808110156107f257600080fd5b810190808035906020019064010000000081111561080f57600080fd5b82018360208201111561082157600080fd5b8035906020019184600183028401116401000000008311171561084357600080fd5b91908080601f016020809104026020016040519081016040528093929190818152602001838380828437600081840152601f19601f820116905080830192505050505050509192919290803590602001909291908035151590602001909291908035906020019092919050505061140f565b6040518082815260200191505060405180910390f35b3480156108d757600080fd5b506108e061159a565b604051808273ffffffffffffffffffffffffffffffffffffffff1673ffffffffffffffffffffffffffffffffffffffff16815260200191505060405180910390f35b34801561092e57600080fd5b506109376115c0565b6040518082815260200191505060405180910390f35b34801561095957600080fd5b50610a336004803603604081101561097057600080fd5b810190808035906020019064010000000081111561098d57600080fd5b82018360208201111561099f57600080fd5b803590602001918460018302840111640100000000831117156109c157600080fd5b91908080601f016020809104026020016040519081016040528093929190818152602001838380828437600081840152601f19601f820116905080830192505050505050509192919290803573ffffffffffffffffffffffffffffffffffffffff1690602001909291905050506115c6565b6040518082815260200191505060405180910390f35b348015610a5557600080fd5b50610b0f60048036036020811015610a6c57600080fd5b8101908080359060200190640100000000811115610a8957600080fd5b820183602082011115610a9b57600080fd5b80359060200191846001830284011164010000000083111715610abd57600080fd5b91908080601f016020809104026020016040519081016040528093929190818152602001838380828437600081840152601f19601f82011690508083019250505050505050919291929050505061167a565b604051808273ffffffffffffffffffffffffffffffffffffffff1673ffffffffffffffffffffffffffffffffffffffff16815260200191505060405180910390f35b348015610b5d57600080fd5b50610b666116c3565b604051808273ffffffffffffffffffffffffffffffffffffffff1673ffffffffffffffffffffffffffffffffffffffff16815260200191505060405180910390f35b348015610bb457600080fd5b50610bf760048036036060811015610bcb57600080fd5b8101908080359060200190929190803515159060200190929190803590602001909291905050506116e9565b6040518082815260200191505060405180910390f35b348015610c1957600080fd5b50610cd360048036036020811015610c3057600080fd5b8101908080359060200190640100000000811115610c4d57600080fd5b820183602082011115610c5f57600080fd5b80359060200191846001830284011164010000000083111715610c8157600080fd5b91908080601f016020809104026020016040519081016040528093929190818152602001838380828437600081840152601f19601f820116905080830192505050505050509192919290505050611732565b604051808273ffffffffffffffffffffffffffffffffffffffff1673ffffffffffffffffffffffffffffffffffffffff16815260200191505060405180910390f35b348015610d2157600080fd5b50610d2a6117c5565b604051808215151515815260200191505060405180910390f35b600a60009054906101000a900473ffffffffffffffffffffffffffffffffffffffff1681565b600960205281600052604060002081805160208101820180518482526020830160208501208183528095505050505050600091509150508060000154908060010154905082565b60065481565b60606000808373ffffffffffffffffffffffffffffffffffffffff1673ffffffffffffffffffffffffffffffffffffffff1681526020019081526020016000208054600181600116156101000203166002900480601f016020809104026020016040519081016040528092919081815260200182805460018160011615610100020316600290048015610e8b5780601f10610e6057610100808354040283529160200191610e8b565b820191906000526020600020905b815481529060010190602001808311610e6e57829003601f168201915b50505050509050919050565b600754804211610ea657600080fd5b600860009054906101000a900460ff1615610ec057600080fd5b7f090e5bfb062255c0961c85c80c3db4215b52d2c0f61e013253e3dc5c448d25a4600a60009054906101000a900473ffffffffffffffffffffffffffffffffffffffff16600b54604051808373ffffffffffffffffffffffffffffffffffffffff1673ffffffffffffffffffffffffffffffffffffffff1681526020018281526020019250505060405180910390a16001600860006101000a81548160ff021916908315150217905550600560009054906101000a900473ffffffffffffffffffffffffffffffffffffffff1673ffffffffffffffffffffffffffffffffffffffff166108fc600b549081150290604051600060405180830381858888f19350505050158015610fd4573d6000803e3d6000fd5b5050565b6000600c60003373ffffffffffffffffffffffffffffffffffffffff1673ffffffffffffffffffffffffffffffffffffffff16815260200190815260200160002054905060008111156110b2576000600c60003373ffffffffffffffffffffffffffffffffffffffff1673ffffffffffffffffffffffffffffffffffffffff168152602001908152602001600020819055503373ffffffffffffffffffffffffffffffffffffffff166108fc829081150290604051600060405180830381858888f193505050501580156110b0573d6000803e3d6000fd5b505b50565b60008073ffffffffffffffffffffffffffffffffffffffff166001836040518082805190602001908083835b6020831061110457805182526020820191506020810190506020830392506110e1565b6001836020036101000a038019825116818451168082178552505050505050905001915050908152602001604051809103902060009054906101000a900473ffffffffffffffffffffffffffffffffffffffff1673ffffffffffffffffffffffffffffffffffffffff161461117c5760009050611181565b600190505b919050565b6000600a60009054906101000a900473ffffffffffffffffffffffffffffffffffffffff16905090565b600080600960008573ffffffffffffffffffffffffffffffffffffffff1673ffffffffffffffffffffffffffffffffffffffff168152602001908152602001600020836040518082805190602001908083835b602083106112265780518252602082019150602081019050602083039250611203565b6001836020036101000a03801982511681845116808217855250505050505090500191505090815260200160405180910390209050806000015491505092915050565b6000600b54905090565b600b5481565b60065480421061128857600080fd5b604051806040016040528083815260200134815250600960003373ffffffffffffffffffffffffffffffffffffffff1673ffffffffffffffffffffffffffffffffffffffff168152602001908152602001600020846040518082805190602001908083835b6020831061131057805182526020820191506020810190506020830392506112ed565b6001836020036101000a03801982511681845116808217855250505050505090500191505090815260200160405180910390206000820151816000015560208201518160010155905050505050565b60006020528060005260406000206000915090508054600181600116156101000203166002900480601f0160208091040260200160405190810160405280929190818152602001828054600181600116156101000203166002900480156114075780601f106113dc57610100808354040283529160200191611407565b820191906000526020600020905b8154815290600101906020018083116113ea57829003601f168201915b505050505081565b6000806000600960003373ffffffffffffffffffffffffffffffffffffffff1673ffffffffffffffffffffffffffffffffffffffff168152602001908152602001600020876040518082805190602001908083835b602083106114875780518252602082019150602081019050602083039250611464565b6001836020036101000a03801982511681845116808217855250505050505090500191505090815260200160405180910390209050600080600088888892509250925060006114d78484846116e9565b905060006114e5338d6111b0565b90508181146114fd5786975050505050505050611592565b85600101548701965083158015611518575084866001015410155b156115345761152833868e6117d8565b156115335784870396505b5b6000801b86600001819055503373ffffffffffffffffffffffffffffffffffffffff166108fc889081150290604051600060405180830381858888f19350505050158015611586573d6000803e3d6000fd5b50869750505050505050505b949350505050565b600260009054906101000a900473ffffffffffffffffffffffffffffffffffffffff1681565b60075481565b6000600960008373ffffffffffffffffffffffffffffffffffffffff1673ffffffffffffffffffffffffffffffffffffffff168152602001908152602001600020836040518082805190602001908083835b6020831061163b5780518252602082019150602081019050602083039250611618565b6001836020036101000a038019825116818451168082178552505050505050905001915050908152602001604051809103902060010154905092915050565b6001818051602081018201805184825260208301602085012081835280955050505050506000915054906101000a900473ffffffffffffffffffffffffffffffffffffffff1681565b600560009054906101000a900473ffffffffffffffffffffffffffffffffffffffff1681565b600083838360405160200180848152602001831515151560f81b815260010182815260200193505050506040516020818303038152906040528051906020012090509392505050565b60006001826040518082805190602001908083835b6020831061176a5780518252602082019150602081019050602083039250611747565b6001836020036101000a038019825116818451168082178552505050505050905001915050908152602001604051809103902060009054906101000a900473ffffffffffffffffffffffffffffffffffffffff169050919050565b600860009054906101000a900460ff1681565b6000600b5483116117ec5760009050611af4565b600073ffffffffffffffffffffffffffffffffffffffff16600a60009054906101000a900473ffffffffffffffffffffffffffffffffffffffff1673ffffffffffffffffffffffffffffffffffffffff16146119ac57600b54600c6000600a60009054906101000a900473ffffffffffffffffffffffffffffffffffffffff1673ffffffffffffffffffffffffffffffffffffffff1673ffffffffffffffffffffffffffffffffffffffff16815260200190815260200160002060008282540192505081905550600080600a60009054906101000a900473ffffffffffffffffffffffffffffffffffffffff1673ffffffffffffffffffffffffffffffffffffffff1673ffffffffffffffffffffffffffffffffffffffff168152602001908152602001600020600061191f9190611afb565b6001826040518082805190602001908083835b602083106119555780518252602082019150602081019050602083039250611932565b6001836020036101000a038019825116818451168082178552505050505050905001915050908152602001604051809103902060006101000a81549073ffffffffffffffffffffffffffffffffffffffff02191690555b82600b8190555083600a60006101000a81548173ffffffffffffffffffffffffffffffffffffffff021916908373ffffffffffffffffffffffffffffffffffffffff160217905550816000808673ffffffffffffffffffffffffffffffffffffffff1673ffffffffffffffffffffffffffffffffffffffff1681526020019081526020016000209080519060200190611a46929190611b43565b50836001836040518082805190602001908083835b60208310611a7e5780518252602082019150602081019050602083039250611a5b565b6001836020036101000a038019825116818451168082178552505050505050905001915050908152602001604051809103902060006101000a81548173ffffffffffffffffffffffffffffffffffffffff021916908373ffffffffffffffffffffffffffffffffffffffff160217905550600190505b9392505050565b50805460018160011615610100020316600290046000825580601f10611b215750611b40565b601f016020900490600052602060002090810190611b3f9190611bc3565b5b50565b828054600181600116156101000203166002900490600052602060002090601f016020900481019282601f10611b8457805160ff1916838001178555611bb2565b82800160010185558215611bb2579182015b82811115611bb1578251825591602001919060010190611b96565b5b509050611bbf9190611bc3565b5090565b611be591905b80821115611be1576000816000905550600101611bc9565b5090565b9056fea265627a7a72315820c6693210bd8260a540c3082a911bf3c0a6fe84da71fa552924d154ce2ad7eaa864736f6c63430005100032",
  "source": "pragma solidity ^0.5.16;\n\ncontract NtuDNR{\n    // ---- Declarations ----\n\n    // *** General section for domain inquiries ***\n    mapping (address => string) public domainNames;\n    mapping (string => address) public addresses;\n    address payable public owner;\n\n    // *** Bidding section ***\n    uint _timeBidding = 2 minutes; //change bidding duration here\n    uint _revealTime = 10 minutes; //change reveal period here\n\n    struct Bid {\n        bytes32 blindBid;\n        uint256 deposit;\n    }\n\n    address payable public beneficiaryAddress;\n    uint256 public endBidding;\n    uint256 public endReveal;\n    bool public hasEnded;\n\n    mapping(address => mapping (string => Bid)) public bid;\n\n    address public topBidder;\n    uint public topBid;\n\n    //Allowed withdrawals of previous bids\n    mapping(address => uint256) returnsPending;\n\n    event AuctionComplete(address winner, uint256 topBid);\n\n    modifier beforeOnly(uint256 _time) {\n        require(now < _time);\n        _;\n    }\n    modifier afterOnly(uint256 _time) {\n        require(now > _time);\n        _;\n    }\n\n\n    // ---- Functions ----\n\n    constructor () public {\n        owner = msg.sender;\n        beneficiaryAddress = owner;\n        endBidding = now + _timeBidding;\n        endReveal = endBidding + _revealTime;\n    }\n\n    // *** General functions ***\n    /*\n    function createDomain(address receiver, string memory inputDomainName) public {\n\n        bool createSuccess = this.searchDomain(inputDomainName); // TO-DO Check validity of input domain\n        require(createSuccess, \"Your domain has been taken.\");\n        domainNames[receiver] = inputDomainName; // Map input address to domain\n        addresses[inputDomainName] = receiver; // Map domain to input address, assuming each address only has 1 address\n    }\n*/\n    function searchDomain(string memory targetDomain) view public returns (bool success){\n        if (addresses[targetDomain] != address(0)) return false; //Check if the domain is registered\n        return true;\n    }\n\n    function queryAddress(string memory targetDomain) view public returns (address){\n        return (addresses[targetDomain]); // domain as key\n    }\n\n    function queryDomain(address targetAddress) view public returns (string memory) {\n        return domainNames[targetAddress]; // address as key\n    }\n\n    // *** Blind Auction functions ***\n    function makeBid(string memory targetDomain, bytes32 _blindBid) public payable beforeOnly(endBidding) {\n        bid[msg.sender][targetDomain] = (Bid({blindBid: _blindBid, deposit: msg.value}));\n    }\n\n    /// Blinded bids are revealed. All invalid bids that were blinded\n    /// correctly will be refunded and for every bid except for\n    /// the total highest.\n\n    //@@@@@@@@@@@@@@@@@@@@@@@@@@@@@@@@@@@@@@@@@@@@@@@@@@@@@@@\n    //**** IMPLEMENT THIS WHEN DONE WITH TESTING PHASE ****\n    //afterOnly(endBidding) beforeOnly(endReveal)\n    function reveal(string memory targetDomain, uint _values, bool _fake, bytes32 _secret) public returns(uint256){\n        uint256 refund;\n        Bid storage thisBid = bid[msg.sender][targetDomain];\n        (uint valueBid, bool bidFake, bytes32 secret) = (\n        _values,\n        _fake,\n        _secret\n        );\n        bytes32 check = checkHashValue(valueBid, bidFake, secret);\n        bytes32 orig = checkOrigHashValue(msg.sender, targetDomain);\n        if (orig != check) {\n            //Bid was not properly revealed\n            //Deposit is not refunded\n            return refund;\n        }\n        refund += thisBid.deposit;\n        //Reduce the refund amount for the top bidder by value bidded\n        if (!bidFake && thisBid.deposit >= valueBid) {\n            if (bidPlace(msg.sender, valueBid, targetDomain)) {\n                refund -= valueBid;\n            }\n        }\n\n        //Prevents sender from reclaiming the same deposit\n        thisBid.blindBid = bytes32(0);\n        msg.sender.transfer(refund);\n        return refund;\n    }\n\n    // This function is \"internal\", meaning that it\n    // may only be called from inside the contract itself (or from\n    // contracts deriving from it).\n    // Checks the bid value and re-verifies the top bidder\n    function bidPlace(address bidder, uint valueBid, string memory targetDomain)\n    internal\n    returns (bool success)\n    {\n        if (valueBid<= topBid) {\n            return false;\n        }\n\n        if (topBidder!= address(0)){\n            //Refund the previous top bidder\n            returnsPending[topBidder] += topBid;\n            delete domainNames[topBidder];\n            delete addresses[targetDomain];\n        }\n        topBid = valueBid;\n        topBidder = bidder;\n        domainNames[bidder] = targetDomain;\n        addresses[targetDomain] = bidder;\n        return true;\n    }\n\n    /// Withdraw an overbid bid.\n    function withdrawBid() public {\n        uint amount = returnsPending[msg.sender];\n        if (amount > 0) {\n            // It is crucial that this is set to zero since the recipient\n            // can call this function repeatedly as part of the receiving call\n            // before `transfer` is returned (see the remark above concerning\n            // conditions -> effects -> interaction).\n            returnsPending[msg.sender] = 0;\n            msg.sender.transfer(amount);\n        }\n    }\n\n    /// Auction is completed and the top bid is sent\n    /// to the beneficiary's address.\n    function auctionEnd() public afterOnly(endReveal) {\n        require(!hasEnded);\n\n        emit AuctionComplete(topBidder, topBid);\n        hasEnded = true;\n        beneficiaryAddress.transfer(topBid);\n    }\n\n    function viewBidDeposit(string memory targetDomain, address targetAddress) public view returns (uint256 deposit){\n        return bid[targetAddress][targetDomain].deposit;\n    }\n\n    function viewTopBidder() public view returns(address){\n        return topBidder;\n    }\n\n    function viewTopBidValue() public view returns (uint){\n        return topBid;\n    }\n\n    function checkHashValue(uint valueBid, bool bidFake, bytes32 secret) public pure returns (bytes32){\n        return keccak256(abi.encodePacked(valueBid, bidFake, secret));\n    }\n\n    function checkOrigHashValue(address bidderAddress, string memory targetDomain) public view returns (bytes32){\n        Bid storage thisBid = bid[bidderAddress][targetDomain];\n        return thisBid.blindBid;\n    }\n\n}\n",
  "sourcePath": "C:/Users/asus/Desktop/NtuDNR/contracts/NtuDNR.sol",
  "compiler": {
    "name": "solc",
    "version": "0.5.16+commit.9c3226ce.Emscripten.clang"
  },
  "schemaVersion": "3.3.1",
  "updatedAt": "2020-10-28T07:28:44.877Z",
  "networkType": "ethereum",
  "devdoc": {
    "methods": {}
  },
  "userdoc": {
    "methods": {
      "auctionEnd()": {
        "notice": "Auction is completed and the top bid is sent to the beneficiary's address."
      },
      "reveal(string,uint256,bool,bytes32)": {
        "notice": "Blinded bids are revealed. All invalid bids that were blinded correctly will be refunded and for every bid except for the total highest."
      },
      "withdrawBid()": {
        "notice": "Withdraw an overbid bid."
      }
    }
  }
}