{
  "contractName": "NtuDNR",
  "abi": [
    {
      "inputs": [],
      "payable": false,
      "stateMutability": "nonpayable",
      "type": "constructor"
    },
    {
      "anonymous": false,
      "inputs": [
        {
          "indexed": false,
          "internalType": "address",
          "name": "winner",
          "type": "address"
        },
        {
          "indexed": false,
          "internalType": "uint256",
          "name": "topBid",
          "type": "uint256"
        }
      ],
      "name": "AuctionComplete",
      "type": "event"
    },
    {
      "constant": true,
      "inputs": [
        {
          "internalType": "string",
          "name": "",
          "type": "string"
        }
      ],
      "name": "addresses",
      "outputs": [
        {
          "internalType": "address",
          "name": "",
          "type": "address"
        }
      ],
      "payable": false,
      "stateMutability": "view",
      "type": "function"
    },
    {
      "constant": true,
      "inputs": [],
      "name": "beneficiaryAddress",
      "outputs": [
        {
          "internalType": "address payable",
          "name": "",
          "type": "address"
        }
      ],
      "payable": false,
      "stateMutability": "view",
      "type": "function"
    },
    {
      "constant": true,
      "inputs": [
        {
          "internalType": "address",
          "name": "",
          "type": "address"
        },
        {
          "internalType": "string",
          "name": "",
          "type": "string"
        }
      ],
      "name": "bid",
      "outputs": [
        {
          "internalType": "bytes32",
          "name": "blindBid",
          "type": "bytes32"
        },
        {
          "internalType": "uint256",
          "name": "deposit",
          "type": "uint256"
        }
      ],
      "payable": false,
      "stateMutability": "view",
      "type": "function"
    },
    {
      "constant": true,
      "inputs": [
        {
          "internalType": "address",
          "name": "",
          "type": "address"
        }
      ],
      "name": "domainNames",
      "outputs": [
        {
          "internalType": "string",
          "name": "",
          "type": "string"
        }
      ],
      "payable": false,
      "stateMutability": "view",
      "type": "function"
    },
    {
      "constant": true,
      "inputs": [],
      "name": "endBidding",
      "outputs": [
        {
          "internalType": "uint256",
          "name": "",
          "type": "uint256"
        }
      ],
      "payable": false,
      "stateMutability": "view",
      "type": "function"
    },
    {
      "constant": true,
      "inputs": [],
      "name": "endReveal",
      "outputs": [
        {
          "internalType": "uint256",
          "name": "",
          "type": "uint256"
        }
      ],
      "payable": false,
      "stateMutability": "view",
      "type": "function"
    },
    {
      "constant": true,
      "inputs": [],
      "name": "hasEnded",
      "outputs": [
        {
          "internalType": "bool",
          "name": "",
          "type": "bool"
        }
      ],
      "payable": false,
      "stateMutability": "view",
      "type": "function"
    },
    {
      "constant": true,
      "inputs": [],
      "name": "owner",
      "outputs": [
        {
          "internalType": "address payable",
          "name": "",
          "type": "address"
        }
      ],
      "payable": false,
      "stateMutability": "view",
      "type": "function"
    },
    {
      "constant": true,
      "inputs": [],
      "name": "topBid",
      "outputs": [
        {
          "internalType": "uint256",
          "name": "",
          "type": "uint256"
        }
      ],
      "payable": false,
      "stateMutability": "view",
      "type": "function"
    },
    {
      "constant": true,
      "inputs": [],
      "name": "topBidder",
      "outputs": [
        {
          "internalType": "address",
          "name": "",
          "type": "address"
        }
      ],
      "payable": false,
      "stateMutability": "view",
      "type": "function"
    },
    {
      "constant": true,
      "inputs": [
        {
          "internalType": "string",
          "name": "targetDomain",
          "type": "string"
        }
      ],
      "name": "searchDomain",
      "outputs": [
        {
          "internalType": "bool",
          "name": "success",
          "type": "bool"
        }
      ],
      "payable": false,
      "stateMutability": "view",
      "type": "function"
    },
    {
      "constant": true,
      "inputs": [
        {
          "internalType": "string",
          "name": "targetDomain",
          "type": "string"
        }
      ],
      "name": "queryAddress",
      "outputs": [
        {
          "internalType": "address",
          "name": "",
          "type": "address"
        }
      ],
      "payable": false,
      "stateMutability": "view",
      "type": "function"
    },
    {
      "constant": true,
      "inputs": [
        {
          "internalType": "address",
          "name": "targetAddress",
          "type": "address"
        }
      ],
      "name": "queryDomain",
      "outputs": [
        {
          "internalType": "string",
          "name": "",
          "type": "string"
        }
      ],
      "payable": false,
      "stateMutability": "view",
      "type": "function"
    },
    {
      "constant": false,
      "inputs": [
        {
          "internalType": "string",
          "name": "targetDomain",
          "type": "string"
        },
        {
          "internalType": "bytes32",
          "name": "_blindBid",
          "type": "bytes32"
        }
      ],
      "name": "makeBid",
      "outputs": [],
      "payable": true,
      "stateMutability": "payable",
      "type": "function"
    },
    {
      "constant": false,
      "inputs": [
        {
          "internalType": "string",
          "name": "targetDomain",
          "type": "string"
        },
        {
          "internalType": "uint256",
          "name": "_values",
          "type": "uint256"
        },
        {
          "internalType": "bool",
          "name": "_fake",
          "type": "bool"
        },
        {
          "internalType": "bytes32",
          "name": "_secret",
          "type": "bytes32"
        }
      ],
      "name": "reveal",
      "outputs": [
        {
          "internalType": "uint256",
          "name": "",
          "type": "uint256"
        }
      ],
      "payable": false,
      "stateMutability": "nonpayable",
      "type": "function"
    },
    {
      "constant": false,
      "inputs": [],
      "name": "withdrawBid",
      "outputs": [],
      "payable": false,
      "stateMutability": "nonpayable",
      "type": "function"
    },
    {
      "constant": false,
      "inputs": [],
      "name": "auctionEnd",
      "outputs": [],
      "payable": false,
      "stateMutability": "nonpayable",
      "type": "function"
    },
    {
      "constant": true,
      "inputs": [
        {
          "internalType": "string",
          "name": "targetDomain",
          "type": "string"
        },
        {
          "internalType": "address",
          "name": "targetAddress",
          "type": "address"
        }
      ],
      "name": "viewBidDeposit",
      "outputs": [
        {
          "internalType": "uint256",
          "name": "deposit",
          "type": "uint256"
        }
      ],
      "payable": false,
      "stateMutability": "view",
      "type": "function"
    },
    {
      "constant": true,
      "inputs": [],
      "name": "viewTopBidder",
      "outputs": [
        {
          "internalType": "address",
          "name": "",
          "type": "address"
        }
      ],
      "payable": false,
      "stateMutability": "view",
      "type": "function"
    },
    {
      "constant": true,
      "inputs": [],
      "name": "viewTopBidValue",
      "outputs": [
        {
          "internalType": "uint256",
          "name": "",
          "type": "uint256"
        }
      ],
      "payable": false,
      "stateMutability": "view",
      "type": "function"
    },
    {
      "constant": true,
      "inputs": [],
      "name": "viewBidStatus",
      "outputs": [
        {
          "internalType": "bool",
          "name": "success",
          "type": "bool"
        }
      ],
      "payable": false,
      "stateMutability": "view",
      "type": "function"
    },
    {
      "constant": true,
      "inputs": [
        {
          "internalType": "uint256",
          "name": "valueBid",
          "type": "uint256"
        },
        {
          "internalType": "bool",
          "name": "bidFake",
          "type": "bool"
        },
        {
          "internalType": "bytes32",
          "name": "secret",
          "type": "bytes32"
        }
      ],
      "name": "checkHashValue",
      "outputs": [
        {
          "internalType": "bytes32",
          "name": "",
          "type": "bytes32"
        }
      ],
      "payable": false,
      "stateMutability": "pure",
      "type": "function"
    },
    {
      "constant": true,
      "inputs": [
        {
          "internalType": "address",
          "name": "bidderAddress",
          "type": "address"
        },
        {
          "internalType": "string",
          "name": "targetDomain",
          "type": "string"
        }
      ],
      "name": "checkOrigHashValue",
      "outputs": [
        {
          "internalType": "bytes32",
          "name": "",
          "type": "bytes32"
        }
      ],
      "payable": false,
      "stateMutability": "view",
      "type": "function"
    }
  ],
  "bytecode": "0x6080604052607860035561025860045534801561001b57600080fd5b5033600260006101000a81548173ffffffffffffffffffffffffffffffffffffffff021916908373ffffffffffffffffffffffffffffffffffffffff160217905550600260009054906101000a900473ffffffffffffffffffffffffffffffffffffffff16600560006101000a81548173ffffffffffffffffffffffffffffffffffffffff021916908373ffffffffffffffffffffffffffffffffffffffff160217905550600354420160068190555060045460065401600781905550611caf806100e76000396000f3fe6080604052600436106101405760003560e01c80636736c8cc116100b6578063bdfe7d471161006f578063bdfe7d4714610a54578063c9c4eb5014610b5c578063d9c4870e14610b8b578063e63c4db614610be2578063ea20166014610c47578063ecb70fb714610d4f57610140565b80636736c8cc1461064b57806377a21ba81461071057806384692d8b146107da5780638da5cb5b146108d6578063a35bb3a91461092d578063bcf772ea1461095857610140565b806337271cc71161010857806337271cc7146103ab5780633dc518da146103c257806343562ddd146104a25780635107e101146104f95780635ae9aa60146105f5578063636bf7301461062057610140565b806301333f06146101455780630fa95c331461019c5780631a81d59c1461029f57806329d5c4ff146102ca5780632a24f46c14610394575b600080fd5b34801561015157600080fd5b5061015a610d7e565b604051808273ffffffffffffffffffffffffffffffffffffffff1673ffffffffffffffffffffffffffffffffffffffff16815260200191505060405180910390f35b3480156101a857600080fd5b50610282600480360360408110156101bf57600080fd5b81019080803573ffffffffffffffffffffffffffffffffffffffff169060200190929190803590602001906401000000008111156101fc57600080fd5b82018360208201111561020e57600080fd5b8035906020019184600183028401116401000000008311171561023057600080fd5b91908080601f016020809104026020016040519081016040528093929190818152602001838380828437600081840152601f19601f820116905080830192505050505050509192919290505050610da4565b604051808381526020018281526020019250505060405180910390f35b3480156102ab57600080fd5b506102b4610deb565b6040518082815260200191505060405180910390f35b3480156102d657600080fd5b50610319600480360360208110156102ed57600080fd5b81019080803573ffffffffffffffffffffffffffffffffffffffff169060200190929190505050610df1565b6040518080602001828103825283818151815260200191508051906020019080838360005b8381101561035957808201518184015260208101905061033e565b50505050905090810190601f1680156103865780820380516001836020036101000a031916815260200191505b509250505060405180910390f35b3480156103a057600080fd5b506103a9610ed1565b005b3480156103b757600080fd5b506103c0611012565b005b3480156103ce57600080fd5b50610488600480360360208110156103e557600080fd5b810190808035906020019064010000000081111561040257600080fd5b82018360208201111561041457600080fd5b8035906020019184600183028401116401000000008311171561043657600080fd5b91908080601f016020809104026020016040519081016040528093929190818152602001838380828437600081840152601f19601f8201169050808301925050505050505091929192905050506110ef565b604051808215151515815260200191505060405180910390f35b3480156104ae57600080fd5b506104b76111c0565b604051808273ffffffffffffffffffffffffffffffffffffffff1673ffffffffffffffffffffffffffffffffffffffff16815260200191505060405180910390f35b34801561050557600080fd5b506105df6004803603604081101561051c57600080fd5b81019080803573ffffffffffffffffffffffffffffffffffffffff1690602001909291908035906020019064010000000081111561055957600080fd5b82018360208201111561056b57600080fd5b8035906020019184600183028401116401000000008311171561058d57600080fd5b91908080601f016020809104026020016040519081016040528093929190818152602001838380828437600081840152601f19601f8201169050808301925050505050505091929192905050506111ea565b6040518082815260200191505060405180910390f35b34801561060157600080fd5b5061060a6112a3565b6040518082815260200191505060405180910390f35b34801561062c57600080fd5b506106356112ad565b6040518082815260200191505060405180910390f35b61070e6004803603604081101561066157600080fd5b810190808035906020019064010000000081111561067e57600080fd5b82018360208201111561069057600080fd5b803590602001918460018302840111640100000000831117156106b257600080fd5b91908080601f016020809104026020016040519081016040528093929190818152602001838380828437600081840152601f19601f820116905080830192505050505050509192919290803590602001909291905050506112b3565b005b34801561071c57600080fd5b5061075f6004803603602081101561073357600080fd5b81019080803573ffffffffffffffffffffffffffffffffffffffff169060200190929190505050611399565b6040518080602001828103825283818151815260200191508051906020019080838360005b8381101561079f578082015181840152602081019050610784565b50505050905090810190601f1680156107cc5780820380516001836020036101000a031916815260200191505b509250505060405180910390f35b3480156107e657600080fd5b506108c0600480360360808110156107fd57600080fd5b810190808035906020019064010000000081111561081a57600080fd5b82018360208201111561082c57600080fd5b8035906020019184600183028401116401000000008311171561084e57600080fd5b91908080601f016020809104026020016040519081016040528093929190818152602001838380828437600081840152601f19601f8201169050808301925050505050505091929192908035906020019092919080351515906020019092919080359060200190929190505050611449565b6040518082815260200191505060405180910390f35b3480156108e257600080fd5b506108eb6115d4565b604051808273ffffffffffffffffffffffffffffffffffffffff1673ffffffffffffffffffffffffffffffffffffffff16815260200191505060405180910390f35b34801561093957600080fd5b506109426115fa565b6040518082815260200191505060405180910390f35b34801561096457600080fd5b50610a3e6004803603604081101561097b57600080fd5b810190808035906020019064010000000081111561099857600080fd5b8201836020820111156109aa57600080fd5b803590602001918460018302840111640100000000831117156109cc57600080fd5b91908080601f016020809104026020016040519081016040528093929190818152602001838380828437600081840152601f19601f820116905080830192505050505050509192919290803573ffffffffffffffffffffffffffffffffffffffff169060200190929190505050611600565b6040518082815260200191505060405180910390f35b348015610a6057600080fd5b50610b1a60048036036020811015610a7757600080fd5b8101908080359060200190640100000000811115610a9457600080fd5b820183602082011115610aa657600080fd5b80359060200191846001830284011164010000000083111715610ac857600080fd5b91908080601f016020809104026020016040519081016040528093929190818152602001838380828437600081840152601f19601f8201169050808301925050505050505091929192905050506116b4565b604051808273ffffffffffffffffffffffffffffffffffffffff1673ffffffffffffffffffffffffffffffffffffffff16815260200191505060405180910390f35b348015610b6857600080fd5b50610b716116fd565b604051808215151515815260200191505060405180910390f35b348015610b9757600080fd5b50610ba0611755565b604051808273ffffffffffffffffffffffffffffffffffffffff1673ffffffffffffffffffffffffffffffffffffffff16815260200191505060405180910390f35b348015610bee57600080fd5b50610c3160048036036060811015610c0557600080fd5b81019080803590602001909291908035151590602001909291908035906020019092919050505061177b565b6040518082815260200191505060405180910390f35b348015610c5357600080fd5b50610d0d60048036036020811015610c6a57600080fd5b8101908080359060200190640100000000811115610c8757600080fd5b820183602082011115610c9957600080fd5b80359060200191846001830284011164010000000083111715610cbb57600080fd5b91908080601f016020809104026020016040519081016040528093929190818152602001838380828437600081840152601f19601f8201169050808301925050505050505091929192905050506117c4565b604051808273ffffffffffffffffffffffffffffffffffffffff1673ffffffffffffffffffffffffffffffffffffffff16815260200191505060405180910390f35b348015610d5b57600080fd5b50610d64611857565b604051808215151515815260200191505060405180910390f35b600a60009054906101000a900473ffffffffffffffffffffffffffffffffffffffff1681565b600960205281600052604060002081805160208101820180518482526020830160208501208183528095505050505050600091509150508060000154908060010154905082565b60065481565b60606000808373ffffffffffffffffffffffffffffffffffffffff1673ffffffffffffffffffffffffffffffffffffffff1681526020019081526020016000208054600181600116156101000203166002900480601f016020809104026020016040519081016040528092919081815260200182805460018160011615610100020316600290048015610ec55780601f10610e9a57610100808354040283529160200191610ec5565b820191906000526020600020905b815481529060010190602001808311610ea857829003601f168201915b50505050509050919050565b600754804211610ee057600080fd5b600860009054906101000a900460ff1615610efa57600080fd5b7f090e5bfb062255c0961c85c80c3db4215b52d2c0f61e013253e3dc5c448d25a4600a60009054906101000a900473ffffffffffffffffffffffffffffffffffffffff16600b54604051808373ffffffffffffffffffffffffffffffffffffffff1673ffffffffffffffffffffffffffffffffffffffff1681526020018281526020019250505060405180910390a16001600860006101000a81548160ff021916908315150217905550600560009054906101000a900473ffffffffffffffffffffffffffffffffffffffff1673ffffffffffffffffffffffffffffffffffffffff166108fc600b549081150290604051600060405180830381858888f1935050505015801561100e573d6000803e3d6000fd5b5050565b6000600c60003373ffffffffffffffffffffffffffffffffffffffff1673ffffffffffffffffffffffffffffffffffffffff16815260200190815260200160002054905060008111156110ec576000600c60003373ffffffffffffffffffffffffffffffffffffffff1673ffffffffffffffffffffffffffffffffffffffff168152602001908152602001600020819055503373ffffffffffffffffffffffffffffffffffffffff166108fc829081150290604051600060405180830381858888f193505050501580156110ea573d6000803e3d6000fd5b505b50565b60008073ffffffffffffffffffffffffffffffffffffffff166001836040518082805190602001908083835b6020831061113e578051825260208201915060208101905060208303925061111b565b6001836020036101000a038019825116818451168082178552505050505050905001915050908152602001604051809103902060009054906101000a900473ffffffffffffffffffffffffffffffffffffffff1673ffffffffffffffffffffffffffffffffffffffff16146111b657600090506111bb565b600190505b919050565b6000600a60009054906101000a900473ffffffffffffffffffffffffffffffffffffffff16905090565b600080600960008573ffffffffffffffffffffffffffffffffffffffff1673ffffffffffffffffffffffffffffffffffffffff168152602001908152602001600020836040518082805190602001908083835b60208310611260578051825260208201915060208101905060208303925061123d565b6001836020036101000a03801982511681845116808217855250505050505090500191505090815260200160405180910390209050806000015491505092915050565b6000600b54905090565b600b5481565b6006548042106112c257600080fd5b604051806040016040528083815260200134815250600960003373ffffffffffffffffffffffffffffffffffffffff1673ffffffffffffffffffffffffffffffffffffffff168152602001908152602001600020846040518082805190602001908083835b6020831061134a5780518252602082019150602081019050602083039250611327565b6001836020036101000a03801982511681845116808217855250505050505090500191505090815260200160405180910390206000820151816000015560208201518160010155905050505050565b60006020528060005260406000206000915090508054600181600116156101000203166002900480601f0160208091040260200160405190810160405280929190818152602001828054600181600116156101000203166002900480156114415780601f1061141657610100808354040283529160200191611441565b820191906000526020600020905b81548152906001019060200180831161142457829003601f168201915b505050505081565b6000806000600960003373ffffffffffffffffffffffffffffffffffffffff1673ffffffffffffffffffffffffffffffffffffffff168152602001908152602001600020876040518082805190602001908083835b602083106114c1578051825260208201915060208101905060208303925061149e565b6001836020036101000a038019825116818451168082178552505050505050905001915050908152602001604051809103902090506000806000888888925092509250600061151184848461177b565b9050600061151f338d6111ea565b905081811461153757869750505050505050506115cc565b85600101548701965083158015611552575084866001015410155b1561156e5761156233868e61186a565b1561156d5784870396505b5b6000801b86600001819055503373ffffffffffffffffffffffffffffffffffffffff166108fc889081150290604051600060405180830381858888f193505050501580156115c0573d6000803e3d6000fd5b50869750505050505050505b949350505050565b600260009054906101000a900473ffffffffffffffffffffffffffffffffffffffff1681565b60075481565b6000600960008373ffffffffffffffffffffffffffffffffffffffff1673ffffffffffffffffffffffffffffffffffffffff168152602001908152602001600020836040518082805190602001908083835b602083106116755780518252602082019150602081019050602083039250611652565b6001836020036101000a038019825116818451168082178552505050505050905001915050908152602001604051809103902060010154905092915050565b6001818051602081018201805184825260208301602085012081835280955050505050506000915054906101000a900473ffffffffffffffffffffffffffffffffffffffff1681565b60003373ffffffffffffffffffffffffffffffffffffffff16600a60009054906101000a900473ffffffffffffffffffffffffffffffffffffffff1673ffffffffffffffffffffffffffffffffffffffff1614905090565b600560009054906101000a900473ffffffffffffffffffffffffffffffffffffffff1681565b600083838360405160200180848152602001831515151560f81b815260010182815260200193505050506040516020818303038152906040528051906020012090509392505050565b60006001826040518082805190602001908083835b602083106117fc57805182526020820191506020810190506020830392506117d9565b6001836020036101000a038019825116818451168082178552505050505050905001915050908152602001604051809103902060009054906101000a900473ffffffffffffffffffffffffffffffffffffffff169050919050565b600860009054906101000a900460ff1681565b6000600b54831161187e5760009050611b86565b600073ffffffffffffffffffffffffffffffffffffffff16600a60009054906101000a900473ffffffffffffffffffffffffffffffffffffffff1673ffffffffffffffffffffffffffffffffffffffff1614611a3e57600b54600c6000600a60009054906101000a900473ffffffffffffffffffffffffffffffffffffffff1673ffffffffffffffffffffffffffffffffffffffff1673ffffffffffffffffffffffffffffffffffffffff16815260200190815260200160002060008282540192505081905550600080600a60009054906101000a900473ffffffffffffffffffffffffffffffffffffffff1673ffffffffffffffffffffffffffffffffffffffff1673ffffffffffffffffffffffffffffffffffffffff16815260200190815260200160002060006119b19190611b8d565b6001826040518082805190602001908083835b602083106119e757805182526020820191506020810190506020830392506119c4565b6001836020036101000a038019825116818451168082178552505050505050905001915050908152602001604051809103902060006101000a81549073ffffffffffffffffffffffffffffffffffffffff02191690555b82600b8190555083600a60006101000a81548173ffffffffffffffffffffffffffffffffffffffff021916908373ffffffffffffffffffffffffffffffffffffffff160217905550816000808673ffffffffffffffffffffffffffffffffffffffff1673ffffffffffffffffffffffffffffffffffffffff1681526020019081526020016000209080519060200190611ad8929190611bd5565b50836001836040518082805190602001908083835b60208310611b105780518252602082019150602081019050602083039250611aed565b6001836020036101000a038019825116818451168082178552505050505050905001915050908152602001604051809103902060006101000a81548173ffffffffffffffffffffffffffffffffffffffff021916908373ffffffffffffffffffffffffffffffffffffffff160217905550600190505b9392505050565b50805460018160011615610100020316600290046000825580601f10611bb35750611bd2565b601f016020900490600052602060002090810190611bd19190611c55565b5b50565b828054600181600116156101000203166002900490600052602060002090601f016020900481019282601f10611c1657805160ff1916838001178555611c44565b82800160010185558215611c44579182015b82811115611c43578251825591602001919060010190611c28565b5b509050611c519190611c55565b5090565b611c7791905b80821115611c73576000816000905550600101611c5b565b5090565b9056fea265627a7a72315820d58def963942b996ba8d00b011e2fca901b2704288bfca91ab2cfb437941120c64736f6c63430005100032",
  "source": "pragma solidity ^0.5.16;\n\ncontract NtuDNR{\n    // ---- Declarations ----\n\n    // *** General section for domain inquiries ***\n    mapping (address => string) public domainNames;\n    mapping (string => address) public addresses;\n    address payable public owner;\n\n    // *** Bidding section ***\n    uint _timeBidding = 2 minutes; //change bidding duration here\n    uint _revealTime = 10 minutes; //change reveal period here\n\n    struct Bid {\n        bytes32 blindBid;\n        uint256 deposit;\n    }\n\n    address payable public beneficiaryAddress;\n    uint256 public endBidding;\n    uint256 public endReveal;\n    bool public hasEnded;\n\n    mapping(address => mapping (string => Bid)) public bid;\n\n    address public topBidder;\n    uint public topBid;\n\n    //Allowed withdrawals of previous bids\n    mapping(address => uint256) returnsPending;\n\n    event AuctionComplete(address winner, uint256 topBid);\n\n    modifier beforeOnly(uint256 _time) {\n        require(now < _time);\n        _;\n    }\n    modifier afterOnly(uint256 _time) {\n        require(now > _time);\n        _;\n    }\n\n\n    // ---- Functions ----\n\n    constructor () public {\n        owner = msg.sender;\n        beneficiaryAddress = owner;\n        endBidding = now + _timeBidding;\n        endReveal = endBidding + _revealTime;\n    }\n\n    // *** General functions ***\n    /*\n    function createDomain(address receiver, string memory inputDomainName) public {\n\n        bool createSuccess = this.searchDomain(inputDomainName); // TO-DO Check validity of input domain\n        require(createSuccess, \"Your domain has been taken.\");\n        domainNames[receiver] = inputDomainName; // Map input address to domain\n        addresses[inputDomainName] = receiver; // Map domain to input address, assuming each address only has 1 address\n    }\n*/\n    function searchDomain(string memory targetDomain) view public returns (bool success){\n        if (addresses[targetDomain] != address(0)) return false; //Check if the domain is registered\n        return true;\n    }\n\n    function queryAddress(string memory targetDomain) view public returns (address){\n        return (addresses[targetDomain]); // domain as key\n    }\n\n    function queryDomain(address targetAddress) view public returns (string memory) {\n        return domainNames[targetAddress]; // address as key\n    }\n\n    // *** Blind Auction functions ***\n    function makeBid(string memory targetDomain, bytes32 _blindBid) public payable beforeOnly(endBidding) {\n        bid[msg.sender][targetDomain] = (Bid({blindBid: _blindBid, deposit: msg.value}));\n    }\n\n    /// Blinded bids are revealed. All invalid bids that were blinded\n    /// correctly will be refunded and for every bid except for\n    /// the total highest.\n\n    //@@@@@@@@@@@@@@@@@@@@@@@@@@@@@@@@@@@@@@@@@@@@@@@@@@@@@@@\n    //**** IMPLEMENT THIS WHEN DONE WITH TESTING PHASE ****\n    //afterOnly(endBidding) beforeOnly(endReveal)\n    function reveal(string memory targetDomain, uint _values, bool _fake, bytes32 _secret) public returns(uint256){\n        uint256 refund;\n        Bid storage thisBid = bid[msg.sender][targetDomain];\n        (uint valueBid, bool bidFake, bytes32 secret) = (\n        _values,\n        _fake,\n        _secret\n        );\n        bytes32 check = checkHashValue(valueBid, bidFake, secret);\n        bytes32 orig = checkOrigHashValue(msg.sender, targetDomain);\n        if (orig != check) {\n            //Bid was not properly revealed\n            //Deposit is not refunded\n            return refund;\n        }\n        refund += thisBid.deposit;\n        //Reduce the refund amount for the top bidder by value bidded\n        if (!bidFake && thisBid.deposit >= valueBid) {\n            if (bidPlace(msg.sender, valueBid, targetDomain)) {\n                refund -= valueBid;\n            }\n        }\n\n        //Prevents sender from reclaiming the same deposit\n        thisBid.blindBid = bytes32(0);\n        msg.sender.transfer(refund);\n        return refund;\n    }\n\n    // This function is \"internal\", meaning that it\n    // may only be called from inside the contract itself (or from\n    // contracts deriving from it).\n    // Checks the bid value and re-verifies the top bidder\n    function bidPlace(address bidder, uint valueBid, string memory targetDomain)\n    internal\n    returns (bool success)\n    {\n        if (valueBid<= topBid) {\n            return false;\n        }\n\n        if (topBidder!= address(0)){\n            //Refund the previous top bidder\n            returnsPending[topBidder] += topBid;\n            delete domainNames[topBidder];\n            delete addresses[targetDomain];\n        }\n        topBid = valueBid;\n        topBidder = bidder;\n        domainNames[bidder] = targetDomain;\n        addresses[targetDomain] = bidder;\n        return true;\n    }\n\n    /// Withdraw an overbid bid.\n    function withdrawBid() public {\n        uint amount = returnsPending[msg.sender];\n        if (amount > 0) {\n            // It is crucial that this is set to zero since the recipient\n            // can call this function repeatedly as part of the receiving call\n            // before `transfer` is returned (see the remark above concerning\n            // conditions -> effects -> interaction).\n            returnsPending[msg.sender] = 0;\n            msg.sender.transfer(amount);\n        }\n    }\n\n    /// Auction is completed and the top bid is sent\n    /// to the beneficiary's address.\n    function auctionEnd() public afterOnly(endReveal) {\n        require(!hasEnded);\n\n        emit AuctionComplete(topBidder, topBid);\n        hasEnded = true;\n        beneficiaryAddress.transfer(topBid);\n    }\n\n    function viewBidDeposit(string memory targetDomain, address targetAddress) public view returns (uint256 deposit){\n        return bid[targetAddress][targetDomain].deposit;\n    }\n\n    function viewTopBidder() public view returns(address){\n        return topBidder;\n    }\n\n    function viewTopBidValue() public view returns (uint){\n        return topBid;\n    }\n\n    function viewBidStatus() public view returns (bool success){\n        return topBidder == msg.sender;\n    }\n    \n    function checkHashValue(uint valueBid, bool bidFake, bytes32 secret) public pure returns (bytes32){\n        return keccak256(abi.encodePacked(valueBid, bidFake, secret));\n    }\n\n    function checkOrigHashValue(address bidderAddress, string memory targetDomain) public view returns (bytes32){\n        Bid storage thisBid = bid[bidderAddress][targetDomain];\n        return thisBid.blindBid;\n    }\n\n}\n",
  "sourcePath": "/Users/aditisaini/Desktop/Courses/Year 4 Sem 1/Blockchain/NtuDNR/contracts/NtuDNR.sol",
  "compiler": {
    "name": "solc",
    "version": "0.5.16+commit.9c3226ce.Emscripten.clang"
  },
  "schemaVersion": "3.3.1",
  "updatedAt": "2020-10-31T10:49:24.180Z",
  "devdoc": {
    "methods": {}
  },
  "userdoc": {
    "methods": {
      "auctionEnd()": {
        "notice": "Auction is completed and the top bid is sent to the beneficiary's address."
      },
      "reveal(string,uint256,bool,bytes32)": {
        "notice": "Blinded bids are revealed. All invalid bids that were blinded correctly will be refunded and for every bid except for the total highest."
      },
      "withdrawBid()": {
        "notice": "Withdraw an overbid bid."
      }
    }
  }
}